{
  "address": "0xE5e341C01205Fdd13A8c2396A0f6380B65bEd9c1",
  "abi": [
    {
      "inputs": [],
      "stateMutability": "nonpayable",
      "type": "constructor"
    },
    {
      "anonymous": false,
      "inputs": [
        {
          "indexed": true,
          "internalType": "address",
          "name": "buyer",
          "type": "address"
        },
        {
          "indexed": true,
          "internalType": "address",
          "name": "nftAddress",
          "type": "address"
        },
        {
          "indexed": true,
          "internalType": "uint256",
          "name": "tokenId",
          "type": "uint256"
        },
        {
          "indexed": false,
          "internalType": "uint256",
          "name": "price",
          "type": "uint256"
        }
      ],
      "name": "BuyItem",
      "type": "event"
    },
    {
      "anonymous": false,
      "inputs": [
        {
          "indexed": true,
          "internalType": "address",
          "name": "seller",
          "type": "address"
        },
        {
          "indexed": true,
          "internalType": "address",
          "name": "nftAddress",
          "type": "address"
        },
        {
          "indexed": true,
          "internalType": "uint256",
          "name": "tokenId",
          "type": "uint256"
        }
      ],
      "name": "CancelListing",
      "type": "event"
    },
    {
      "anonymous": false,
      "inputs": [
        {
          "indexed": true,
          "internalType": "address",
          "name": "seller",
          "type": "address"
        },
        {
          "indexed": true,
          "internalType": "address",
          "name": "nftAddress",
          "type": "address"
        },
        {
          "indexed": true,
          "internalType": "uint256",
          "name": "tokenId",
          "type": "uint256"
        },
        {
          "indexed": false,
          "internalType": "uint256",
          "name": "price",
          "type": "uint256"
        }
      ],
      "name": "ItemListed",
      "type": "event"
    },
    {
      "inputs": [
        {
          "internalType": "address",
          "name": "nftAddress",
          "type": "address"
        },
        {
          "internalType": "uint256",
          "name": "tokenId",
          "type": "uint256"
        }
      ],
      "name": "buyItem",
      "outputs": [],
      "stateMutability": "payable",
      "type": "function"
    },
    {
      "inputs": [
        {
          "internalType": "address",
          "name": "nftAddress",
          "type": "address"
        },
        {
          "internalType": "uint256",
          "name": "tokenId",
          "type": "uint256"
        }
      ],
      "name": "cancelListing",
      "outputs": [],
      "stateMutability": "nonpayable",
      "type": "function"
    },
    {
      "inputs": [
        {
          "internalType": "address",
          "name": "nftAddress",
          "type": "address"
        },
        {
          "internalType": "uint256",
          "name": "tokenId",
          "type": "uint256"
        }
      ],
      "name": "getListing",
      "outputs": [
        {
          "components": [
            {
              "internalType": "uint256",
              "name": "price",
              "type": "uint256"
            },
            {
              "internalType": "address",
              "name": "seller",
              "type": "address"
            }
          ],
          "internalType": "struct NFTMarketPlace.Listing",
          "name": "",
          "type": "tuple"
        }
      ],
      "stateMutability": "view",
      "type": "function"
    },
    {
      "inputs": [
        {
          "internalType": "address",
          "name": "seller",
          "type": "address"
        }
      ],
      "name": "getProceeds",
      "outputs": [
        {
          "internalType": "uint256",
          "name": "",
          "type": "uint256"
        }
      ],
      "stateMutability": "view",
      "type": "function"
    },
    {
      "inputs": [],
      "name": "i_owner",
      "outputs": [
        {
          "internalType": "address",
          "name": "",
          "type": "address"
        }
      ],
      "stateMutability": "view",
      "type": "function"
    },
    {
      "inputs": [
        {
          "internalType": "address",
          "name": "nftAddress",
          "type": "address"
        },
        {
          "internalType": "uint256",
          "name": "price",
          "type": "uint256"
        },
        {
          "internalType": "uint256",
          "name": "tokenId",
          "type": "uint256"
        }
      ],
      "name": "listItem",
      "outputs": [],
      "stateMutability": "nonpayable",
      "type": "function"
    },
    {
      "inputs": [
        {
          "internalType": "address",
          "name": "nftAddress",
          "type": "address"
        },
        {
          "internalType": "uint256",
          "name": "tokenId",
          "type": "uint256"
        },
        {
          "internalType": "uint256",
          "name": "newPrice",
          "type": "uint256"
        }
      ],
      "name": "updateListing",
      "outputs": [],
      "stateMutability": "nonpayable",
      "type": "function"
    },
    {
      "inputs": [],
      "name": "withDrawProceeds",
      "outputs": [],
      "stateMutability": "nonpayable",
      "type": "function"
    }
  ],
  "transactionHash": "0xf51449283e19d13ef56a835f0c091d910dc4a1c4ef818c41088a239c2e6bf9f0",
  "args": [],
  "numDeployments": 2,
  "solcInputHash": "6cc391310b9c50a04a5d21d19dd3b0f5",
  "bytecode": "0x60a060405234801561001057600080fd5b5060016000819055503373ffffffffffffffffffffffffffffffffffffffff1660808173ffffffffffffffffffffffffffffffffffffffff16815250506080516119d46100686000396000610f5201526119d46000f3fe60806040526004361061007b5760003560e01c8063b2ddee061161004e578063b2ddee061461013f578063c6890de514610168578063dba6335f1461017f578063f772adf1146101aa5761007b565b806330cfeda91461008057806388700d1c146100bd57806389bfd38f146100fa5780639f37092a14610123575b600080fd5b34801561008c57600080fd5b506100a760048036038101906100a29190611331565b6101d3565b6040516100b49190611377565b60405180910390f35b3480156100c957600080fd5b506100e460048036038101906100df91906113be565b61021c565b6040516100f1919061144b565b60405180910390f35b34801561010657600080fd5b50610121600480360381019061011c9190611466565b6102e7565b005b61013d600480360381019061013891906113be565b61076e565b005b34801561014b57600080fd5b50610166600480360381019061016191906113be565b610b4c565b005b34801561017457600080fd5b5061017d610e3a565b005b34801561018b57600080fd5b50610194610f50565b6040516101a191906114c8565b60405180910390f35b3480156101b657600080fd5b506101d160048036038101906101cc9190611466565b610f74565b005b6000600260008373ffffffffffffffffffffffffffffffffffffffff1673ffffffffffffffffffffffffffffffffffffffff168152602001908152602001600020549050919050565b61022461129e565b600160008473ffffffffffffffffffffffffffffffffffffffff1673ffffffffffffffffffffffffffffffffffffffff1681526020019081526020016000206000838152602001908152602001600020604051806040016040529081600082015481526020016001820160009054906101000a900473ffffffffffffffffffffffffffffffffffffffff1673ffffffffffffffffffffffffffffffffffffffff1673ffffffffffffffffffffffffffffffffffffffff1681525050905092915050565b82816000600160008473ffffffffffffffffffffffffffffffffffffffff1673ffffffffffffffffffffffffffffffffffffffff1681526020019081526020016000206000838152602001908152602001600020604051806040016040529081600082015481526020016001820160009054906101000a900473ffffffffffffffffffffffffffffffffffffffff1673ffffffffffffffffffffffffffffffffffffffff1673ffffffffffffffffffffffffffffffffffffffff168152505090506000816000015111156103f0576040517f08c379a00000000000000000000000000000000000000000000000000000000081526004016103e790611540565b60405180910390fd5b85843360008390508173ffffffffffffffffffffffffffffffffffffffff168173ffffffffffffffffffffffffffffffffffffffff16636352211e856040518263ffffffff1660e01b81526004016104489190611377565b60206040518083038186803b15801561046057600080fd5b505afa158015610474573d6000803e3d6000fd5b505050506040513d601f19601f820116820180604052508101906104989190611575565b73ffffffffffffffffffffffffffffffffffffffff16146104ee576040517f08c379a00000000000000000000000000000000000000000000000000000000081526004016104e590611614565b60405180910390fd5b60008911610531576040517f08c379a000000000000000000000000000000000000000000000000000000000815260040161052890611680565b60405180910390fd5b60008a90503073ffffffffffffffffffffffffffffffffffffffff168173ffffffffffffffffffffffffffffffffffffffff1663081812fc8b6040518263ffffffff1660e01b81526004016105869190611377565b60206040518083038186803b15801561059e57600080fd5b505afa1580156105b2573d6000803e3d6000fd5b505050506040513d601f19601f820116820180604052508101906105d69190611575565b73ffffffffffffffffffffffffffffffffffffffff161461062c576040517f08c379a000000000000000000000000000000000000000000000000000000000815260040161062390611712565b60405180910390fd5b60405180604001604052808b81526020013373ffffffffffffffffffffffffffffffffffffffff16815250600160008d73ffffffffffffffffffffffffffffffffffffffff1673ffffffffffffffffffffffffffffffffffffffff16815260200190815260200160002060008b81526020019081526020016000206000820151816000015560208201518160010160006101000a81548173ffffffffffffffffffffffffffffffffffffffff021916908373ffffffffffffffffffffffffffffffffffffffff160217905550905050888b73ffffffffffffffffffffffffffffffffffffffff163373ffffffffffffffffffffffffffffffffffffffff167fd547e933094f12a9159076970143ebe73234e64480317844b0dcb36117116de48d6040516107599190611377565b60405180910390a45050505050505050505050565b81816000600160008473ffffffffffffffffffffffffffffffffffffffff1673ffffffffffffffffffffffffffffffffffffffff1681526020019081526020016000206000838152602001908152602001600020604051806040016040529081600082015481526020016001820160009054906101000a900473ffffffffffffffffffffffffffffffffffffffff1673ffffffffffffffffffffffffffffffffffffffff1673ffffffffffffffffffffffffffffffffffffffff168152505090506000816000015111610876576040517f08c379a000000000000000000000000000000000000000000000000000000000815260040161086d9061177e565b60405180910390fd5b61087e611244565b6000600160008773ffffffffffffffffffffffffffffffffffffffff1673ffffffffffffffffffffffffffffffffffffffff1681526020019081526020016000206000868152602001908152602001600020604051806040016040529081600082015481526020016001820160009054906101000a900473ffffffffffffffffffffffffffffffffffffffff1673ffffffffffffffffffffffffffffffffffffffff1673ffffffffffffffffffffffffffffffffffffffff1681525050905034816000015114610983576040517f08c379a000000000000000000000000000000000000000000000000000000000815260040161097a906117ea565b60405180910390fd5b3460026000836020015173ffffffffffffffffffffffffffffffffffffffff1673ffffffffffffffffffffffffffffffffffffffff16815260200190815260200160002060008282546109d69190611839565b92505081905550600160008773ffffffffffffffffffffffffffffffffffffffff1673ffffffffffffffffffffffffffffffffffffffff16815260200190815260200160002060008681526020019081526020016000206000808201600090556001820160006101000a81549073ffffffffffffffffffffffffffffffffffffffff021916905550508573ffffffffffffffffffffffffffffffffffffffff166342842e0e826020015133886040518463ffffffff1660e01b8152600401610aa09392919061188f565b600060405180830381600087803b158015610aba57600080fd5b505af1158015610ace573d6000803e3d6000fd5b50505050848673ffffffffffffffffffffffffffffffffffffffff163373ffffffffffffffffffffffffffffffffffffffff167fc6d7a5e59f38ae48e0f1577ce4627ba9b270bfd4c2c0c7be609c429421bc3d688460000151604051610b349190611377565b60405180910390a450610b45611294565b5050505050565b81813360008390508173ffffffffffffffffffffffffffffffffffffffff168173ffffffffffffffffffffffffffffffffffffffff16636352211e856040518263ffffffff1660e01b8152600401610ba49190611377565b60206040518083038186803b158015610bbc57600080fd5b505afa158015610bd0573d6000803e3d6000fd5b505050506040513d601f19601f82011682018060405250810190610bf49190611575565b73ffffffffffffffffffffffffffffffffffffffff1614610c4a576040517f08c379a0000000000000000000000000000000000000000000000000000000008152600401610c4190611614565b60405180910390fd5b85856000600160008473ffffffffffffffffffffffffffffffffffffffff1673ffffffffffffffffffffffffffffffffffffffff1681526020019081526020016000206000838152602001908152602001600020604051806040016040529081600082015481526020016001820160009054906101000a900473ffffffffffffffffffffffffffffffffffffffff1673ffffffffffffffffffffffffffffffffffffffff1673ffffffffffffffffffffffffffffffffffffffff168152505090506000816000015111610d52576040517f08c379a0000000000000000000000000000000000000000000000000000000008152600401610d499061177e565b60405180910390fd5b600160008a73ffffffffffffffffffffffffffffffffffffffff1673ffffffffffffffffffffffffffffffffffffffff16815260200190815260200160002060008981526020019081526020016000206000808201600090556001820160006101000a81549073ffffffffffffffffffffffffffffffffffffffff02191690555050878973ffffffffffffffffffffffffffffffffffffffff163373ffffffffffffffffffffffffffffffffffffffff167f061e64e10e5e57615a6fe38b48c81926f6999a2f5304d3e5e6b0d3cfac4865a560405160405180910390a4505050505050505050565b6000600260003373ffffffffffffffffffffffffffffffffffffffff1673ffffffffffffffffffffffffffffffffffffffff16815260200190815260200160002054905060008111610ec1576040517f08c379a0000000000000000000000000000000000000000000000000000000008152600401610eb890611912565b60405180910390fd5b6000600260003373ffffffffffffffffffffffffffffffffffffffff1673ffffffffffffffffffffffffffffffffffffffff168152602001908152602001600020819055503373ffffffffffffffffffffffffffffffffffffffff166108fc829081150290604051600060405180830381858888f19350505050158015610f4c573d6000803e3d6000fd5b5050565b7f000000000000000000000000000000000000000000000000000000000000000081565b82823360008390508173ffffffffffffffffffffffffffffffffffffffff168173ffffffffffffffffffffffffffffffffffffffff16636352211e856040518263ffffffff1660e01b8152600401610fcc9190611377565b60206040518083038186803b158015610fe457600080fd5b505afa158015610ff8573d6000803e3d6000fd5b505050506040513d601f19601f8201168201806040525081019061101c9190611575565b73ffffffffffffffffffffffffffffffffffffffff1614611072576040517f08c379a000000000000000000000000000000000000000000000000000000000815260040161106990611614565b60405180910390fd5b86866000600160008473ffffffffffffffffffffffffffffffffffffffff1673ffffffffffffffffffffffffffffffffffffffff1681526020019081526020016000206000838152602001908152602001600020604051806040016040529081600082015481526020016001820160009054906101000a900473ffffffffffffffffffffffffffffffffffffffff1673ffffffffffffffffffffffffffffffffffffffff1673ffffffffffffffffffffffffffffffffffffffff16815250509050600081600001511161117a576040517f08c379a00000000000000000000000000000000000000000000000000000000081526004016111719061177e565b60405180910390fd5b87600160008c73ffffffffffffffffffffffffffffffffffffffff1673ffffffffffffffffffffffffffffffffffffffff16815260200190815260200160002060008b815260200190815260200160002060000181905550888a73ffffffffffffffffffffffffffffffffffffffff163373ffffffffffffffffffffffffffffffffffffffff167fd547e933094f12a9159076970143ebe73234e64480317844b0dcb36117116de48b6040516112309190611377565b60405180910390a450505050505050505050565b6002600054141561128a576040517f08c379a00000000000000000000000000000000000000000000000000000000081526004016112819061197e565b60405180910390fd5b6002600081905550565b6001600081905550565b604051806040016040528060008152602001600073ffffffffffffffffffffffffffffffffffffffff1681525090565b600080fd5b600073ffffffffffffffffffffffffffffffffffffffff82169050919050565b60006112fe826112d3565b9050919050565b61130e816112f3565b811461131957600080fd5b50565b60008135905061132b81611305565b92915050565b600060208284031215611347576113466112ce565b5b60006113558482850161131c565b91505092915050565b6000819050919050565b6113718161135e565b82525050565b600060208201905061138c6000830184611368565b92915050565b61139b8161135e565b81146113a657600080fd5b50565b6000813590506113b881611392565b92915050565b600080604083850312156113d5576113d46112ce565b5b60006113e38582860161131c565b92505060206113f4858286016113a9565b9150509250929050565b6114078161135e565b82525050565b611416816112f3565b82525050565b60408201600082015161143260008501826113fe565b506020820151611445602085018261140d565b50505050565b6000604082019050611460600083018461141c565b92915050565b60008060006060848603121561147f5761147e6112ce565b5b600061148d8682870161131c565b935050602061149e868287016113a9565b92505060406114af868287016113a9565b9150509250925092565b6114c2816112f3565b82525050565b60006020820190506114dd60008301846114b9565b92915050565b600082825260208201905092915050565b7f43757272656e74204e465420686173206c697374656421000000000000000000600082015250565b600061152a6017836114e3565b9150611535826114f4565b602082019050919050565b600060208201905081810360008301526115598161151d565b9050919050565b60008151905061156f81611305565b92915050565b60006020828403121561158b5761158a6112ce565b5b600061159984828501611560565b91505092915050565b7f54686973204e4654206973206e6f742062656c6f6e6720746f2063757272656e60008201527f7420616464726573732100000000000000000000000000000000000000000000602082015250565b60006115fe602a836114e3565b9150611609826115a2565b604082019050919050565b6000602082019050818103600083015261162d816115f1565b9050919050565b7f4e6674207072696365206d757374206e656564206f766572207a65726f210000600082015250565b600061166a601e836114e3565b915061167582611634565b602082019050919050565b600060208201905081810360008301526116998161165d565b9050919050565b7f43757272656e74206d61726b657420686173206e6f74206265656e206170707260008201527f6f7665642062792074686973206e667421000000000000000000000000000000602082015250565b60006116fc6031836114e3565b9150611707826116a0565b604082019050919050565b6000602082019050818103600083015261172b816116ef565b9050919050565b7f43757272656e74204e465420686173206e6f206c697374656421000000000000600082015250565b6000611768601a836114e3565b915061177382611732565b602082019050919050565b600060208201905081810360008301526117978161175b565b9050919050565b7f4e4654207072696365206e6f74206d6574210000000000000000000000000000600082015250565b60006117d46012836114e3565b91506117df8261179e565b602082019050919050565b60006020820190508181036000830152611803816117c7565b9050919050565b7f4e487b7100000000000000000000000000000000000000000000000000000000600052601160045260246000fd5b60006118448261135e565b915061184f8361135e565b9250827fffffffffffffffffffffffffffffffffffffffffffffffffffffffffffffffff038211156118845761188361180a565b5b828201905092915050565b60006060820190506118a460008301866114b9565b6118b160208301856114b9565b6118be6040830184611368565b949350505050565b7f796f752068617665206e6f2070726f6365656473210000000000000000000000600082015250565b60006118fc6015836114e3565b9150611907826118c6565b602082019050919050565b6000602082019050818103600083015261192b816118ef565b9050919050565b7f5265656e7472616e637947756172643a207265656e7472616e742063616c6c00600082015250565b6000611968601f836114e3565b915061197382611932565b602082019050919050565b600060208201905081810360008301526119978161195b565b905091905056fea2646970667358221220aa07ac6d8bc5fe857af8fb091d2d1d01e290a093b386f5a17ee0bce3bf4fa8af64736f6c63430008090033",
  "devdoc": {
    "kind": "dev",
    "methods": {},
    "version": 1
  },
  "userdoc": {
    "kind": "user",
    "methods": {
      "listItem(address,uint256,uint256)": {
        "notice": "1.detemine if the NFT is relist 2.detemine if the NFT is belong to current signer 3.the price of NFT is not allowed low than 0 4.detemine if market contract has been approved with the NFT"
      }
    },
    "version": 1
  },
  "storageLayout": {
    "storage": [
      {
        "astId": 10,
        "contract": "contracts/NFTMarketPlace.sol:NFTMarketPlace",
        "label": "_status",
        "offset": 0,
        "slot": "0",
        "type": "t_uint256"
      },
      {
        "astId": 2883,
        "contract": "contracts/NFTMarketPlace.sol:NFTMarketPlace",
        "label": "s_listing",
        "offset": 0,
        "slot": "1",
        "type": "t_mapping(t_address,t_mapping(t_uint256,t_struct(Listing)2848_storage))"
      },
      {
        "astId": 2887,
        "contract": "contracts/NFTMarketPlace.sol:NFTMarketPlace",
        "label": "s_proceeds",
        "offset": 0,
        "slot": "2",
        "type": "t_mapping(t_address,t_uint256)"
      }
    ],
    "types": {
      "t_address": {
        "encoding": "inplace",
        "label": "address",
        "numberOfBytes": "20"
      },
      "t_mapping(t_address,t_mapping(t_uint256,t_struct(Listing)2848_storage))": {
        "encoding": "mapping",
        "key": "t_address",
        "label": "mapping(address => mapping(uint256 => struct NFTMarketPlace.Listing))",
        "numberOfBytes": "32",
        "value": "t_mapping(t_uint256,t_struct(Listing)2848_storage)"
      },
      "t_mapping(t_address,t_uint256)": {
        "encoding": "mapping",
        "key": "t_address",
        "label": "mapping(address => uint256)",
        "numberOfBytes": "32",
        "value": "t_uint256"
      },
      "t_mapping(t_uint256,t_struct(Listing)2848_storage)": {
        "encoding": "mapping",
        "key": "t_uint256",
        "label": "mapping(uint256 => struct NFTMarketPlace.Listing)",
        "numberOfBytes": "32",
        "value": "t_struct(Listing)2848_storage"
      },
      "t_struct(Listing)2848_storage": {
        "encoding": "inplace",
        "label": "struct NFTMarketPlace.Listing",
        "members": [
          {
            "astId": 2845,
            "contract": "contracts/NFTMarketPlace.sol:NFTMarketPlace",
            "label": "price",
            "offset": 0,
            "slot": "0",
            "type": "t_uint256"
          },
          {
            "astId": 2847,
            "contract": "contracts/NFTMarketPlace.sol:NFTMarketPlace",
            "label": "seller",
            "offset": 0,
            "slot": "1",
            "type": "t_address"
          }
        ],
        "numberOfBytes": "64"
      },
      "t_uint256": {
        "encoding": "inplace",
        "label": "uint256",
        "numberOfBytes": "32"
      }
    }
  }
}